{
  "_format": "hh-sol-artifact-1",
  "contractName": "CargoDelivery",
  "sourceName": "contracts/CargoDelivery.sol",
  "abi": [
    {
      "inputs": [
        {
          "internalType": "contract CRGOToken",
          "name": "_crgoToken",
          "type": "address"
        },
        {
          "internalType": "contract CargoNFT",
          "name": "_cargoNFT",
          "type": "address"
        }
      ],
      "stateMutability": "nonpayable",
      "type": "constructor"
    },
    {
      "inputs": [
        {
          "internalType": "uint256",
          "name": "_weight",
          "type": "uint256"
        },
        {
          "internalType": "uint256",
          "name": "_distance",
          "type": "uint256"
        }
      ],
      "name": "calculateReward",
      "outputs": [
        {
          "internalType": "uint256",
          "name": "",
          "type": "uint256"
        }
      ],
      "stateMutability": "pure",
      "type": "function"
    },
    {
      "inputs": [
        {
          "internalType": "uint256",
          "name": "_deliveryId",
          "type": "uint256"
        }
      ],
      "name": "completeDelivery",
      "outputs": [],
      "stateMutability": "nonpayable",
      "type": "function"
    },
    {
      "inputs": [
        {
          "internalType": "address",
          "name": "_courier",
          "type": "address"
        },
        {
          "internalType": "uint256",
          "name": "_weight",
          "type": "uint256"
        },
        {
          "internalType": "uint256",
          "name": "_fromPort",
          "type": "uint256"
        },
        {
          "internalType": "uint256",
          "name": "_toPort",
          "type": "uint256"
        }
      ],
      "name": "createDelivery",
      "outputs": [],
      "stateMutability": "nonpayable",
      "type": "function"
    },
    {
      "inputs": [
        {
          "internalType": "uint256",
          "name": "",
          "type": "uint256"
        }
      ],
      "name": "deliveries",
      "outputs": [
        {
          "internalType": "address",
          "name": "courier",
          "type": "address"
        },
        {
          "internalType": "uint256",
          "name": "tokenId",
          "type": "uint256"
        },
        {
          "internalType": "uint256",
          "name": "reward",
          "type": "uint256"
        },
        {
          "internalType": "uint256",
          "name": "distance",
          "type": "uint256"
        },
        {
          "internalType": "uint256",
          "name": "weight",
          "type": "uint256"
        },
        {
          "internalType": "bool",
          "name": "completed",
          "type": "bool"
        }
      ],
      "stateMutability": "view",
      "type": "function"
    },
    {
      "inputs": [],
      "name": "nextDeliveryId",
      "outputs": [
        {
          "internalType": "uint256",
          "name": "",
          "type": "uint256"
        }
      ],
      "stateMutability": "view",
      "type": "function"
    },
    {
      "inputs": [
        {
          "internalType": "uint256",
          "name": "",
          "type": "uint256"
        },
        {
          "internalType": "uint256",
          "name": "",
          "type": "uint256"
        }
      ],
      "name": "portDistances",
      "outputs": [
        {
          "internalType": "uint256",
          "name": "",
          "type": "uint256"
        }
      ],
      "stateMutability": "view",
      "type": "function"
    },
    {
      "inputs": [
        {
          "internalType": "uint256",
          "name": "",
          "type": "uint256"
        }
      ],
      "name": "portNames",
      "outputs": [
        {
          "internalType": "string",
          "name": "",
          "type": "string"
        }
      ],
      "stateMutability": "view",
      "type": "function"
    }
  ],
  "bytecode": "0x608060405260405180608001604052806040518060400160405280600e81526020017f506f7274204b6e6f74204369747900000000000000000000000000000000000081525081526020016040518060400160405280600e81526020017f4c616b65204b6e6f74204369747900000000000000000000000000000000000081525081526020016040518060400160405280600f81526020017f536f757468204b6e6f742043697479000000000000000000000000000000000081525081526020016040518060400160405280601281526020017f4d6f756e7461696e204b6e6f742043697479000000000000000000000000000081525081525060049060046200010b929190620002c4565b5060405180608001604052806040518060800160405280600060ff168152602001600f60ff168152602001601960ff168152602001602360ff1681525081526020016040518060800160405280600f60ff168152602001600060ff168152602001600a60ff168152602001601460ff1681525081526020016040518060800160405280601960ff168152602001600a60ff168152602001600060ff168152602001600f60ff1681525081526020016040518060800160405280602360ff168152602001601460ff168152602001600f60ff168152602001600060ff168152508152506008906004620001ff9291906200031e565b503480156200020d57600080fd5b506040516200195c3803806200195c83398181016040528101906200023391906200054f565b816000806101000a81548173ffffffffffffffffffffffffffffffffffffffff021916908373ffffffffffffffffffffffffffffffffffffffff16021790555080600160006101000a81548173ffffffffffffffffffffffffffffffffffffffff021916908373ffffffffffffffffffffffffffffffffffffffff1602179055506000600381905550505062000685565b82600481019282156200030b579160200282015b828111156200030a578251829080519060200190620002f992919062000375565b5091602001919060010190620002d8565b5b5090506200031a919062000406565b5090565b8260048002810192821562000362579160200282015b828111156200036157825182906004620003509291906200042e565b509160200191906004019062000334565b5b50905062000371919062000478565b5090565b8280546200038390620005ec565b90600052602060002090601f016020900481019282620003a75760008555620003f3565b82601f10620003c257805160ff1916838001178555620003f3565b82800160010185558215620003f3579182015b82811115620003f2578251825591602001919060010190620003d5565b5b509050620004029190620004a0565b5090565b5b808211156200042a5760008181620004209190620004bf565b5060010162000407565b5090565b826004810192821562000465579160200282015b8281111562000464578251829060ff1690559160200191906001019062000442565b5b509050620004749190620004a0565b5090565b5b808211156200049c576000818162000492919062000505565b5060040162000479565b5090565b5b80821115620004bb576000816000905550600101620004a1565b5090565b508054620004cd90620005ec565b6000825580601f10620004e1575062000502565b601f016020900490600052602060002090810190620005019190620004a0565b5b50565b5060008155600101600081556001016000815560010160009055565b600081519050620005328162000651565b92915050565b60008151905062000549816200066b565b92915050565b600080604083850312156200056357600080fd5b6000620005738582860162000521565b9250506020620005868582860162000538565b9150509250929050565b60006200059d82620005cc565b9050919050565b6000620005b18262000590565b9050919050565b6000620005c58262000590565b9050919050565b600073ffffffffffffffffffffffffffffffffffffffff82169050919050565b600060028204905060018216806200060557607f821691505b602082108114156200061c576200061b62000622565b5b50919050565b7f4e487b7100000000000000000000000000000000000000000000000000000000600052602260045260246000fd5b6200065c81620005a4565b81146200066857600080fd5b50565b6200067681620005b8565b81146200068257600080fd5b50565b6112c780620006956000396000f3fe608060405234801561001057600080fd5b506004361061007d5760003560e01c806382c9804a1161005b57806382c9804a14610100578063a9e4a3241461011c578063ebb55b8314610151578063f927ecd2146101815761007d565b806313ed08461461008257806315bb38c5146100b257806328c11827146100e2575b600080fd5b61009c60048036038101906100979190610be2565b61019d565b6040516100a99190610f14565b60405180910390f35b6100cc60048036038101906100c79190610be2565b610207565b6040516100d99190610f14565b60405180910390f35b6100ea610235565b6040516100f79190610f14565b60405180910390f35b61011a60048036038101906101159190610b90565b61023b565b005b61013660048036038101906101319190610b90565b6104be565b60405161014896959493929190610dd1565b60405180910390f35b61016b60048036038101906101669190610b90565b610527565b6040516101789190610e32565b60405180910390f35b61019b60048036038101906101969190610b04565b6105ca565b005b600080600190506000600390506000600590506000600890506000600588116101c8578490506101ee565b601488116101d8578390506101ed565b603288116101e8578290506101ec565b8190505b5b5b86816101fa9190610f4b565b9550505050505092915050565b6008826004811061021757600080fd5b60040201816004811061022957600080fd5b01600091509150505481565b60035481565b60006002600083815260200190815260200160002090508060050160009054906101000a900460ff16156102a4576040517f08c379a000000000000000000000000000000000000000000000000000000000815260040161029b90610ed4565b60405180910390fd5b8060000160009054906101000a900473ffffffffffffffffffffffffffffffffffffffff1673ffffffffffffffffffffffffffffffffffffffff163373ffffffffffffffffffffffffffffffffffffffff1614610336576040517f08c379a000000000000000000000000000000000000000000000000000000000815260040161032d90610e74565b60405180910390fd5b600160009054906101000a900473ffffffffffffffffffffffffffffffffffffffff1673ffffffffffffffffffffffffffffffffffffffff166342966c6882600101546040518263ffffffff1660e01b81526004016103959190610f14565b600060405180830381600087803b1580156103af57600080fd5b505af11580156103c3573d6000803e3d6000fd5b5050505060008054906101000a900473ffffffffffffffffffffffffffffffffffffffff1673ffffffffffffffffffffffffffffffffffffffff1663a9059cbb8260000160009054906101000a900473ffffffffffffffffffffffffffffffffffffffff1683600201546040518363ffffffff1660e01b815260040161044a929190610da8565b602060405180830381600087803b15801561046457600080fd5b505af1158015610478573d6000803e3d6000fd5b505050506040513d601f19601f8201168201806040525081019061049c9190610b67565b5060018160050160006101000a81548160ff0219169083151502179055505050565b60026020528060005260406000206000915090508060000160009054906101000a900473ffffffffffffffffffffffffffffffffffffffff16908060010154908060020154908060030154908060040154908060050160009054906101000a900460ff16905086565b6004816004811061053757600080fd5b01600091509050805461054990611020565b80601f016020809104026020016040519081016040528092919081815260200182805461057590611020565b80156105c25780601f10610597576101008083540402835291602001916105c2565b820191906000526020600020905b8154815290600101906020018083116105a557829003601f168201915b505050505081565b600073ffffffffffffffffffffffffffffffffffffffff168473ffffffffffffffffffffffffffffffffffffffff16141561063a576040517f08c379a000000000000000000000000000000000000000000000000000000000815260040161063190610eb4565b60405180910390fd5b60048210801561064a5750600481105b610689576040517f08c379a000000000000000000000000000000000000000000000000000000000815260040161068090610e94565b60405180910390fd5b808214156106cc576040517f08c379a00000000000000000000000000000000000000000000000000000000081526004016106c390610ef4565b60405180910390fd5b600060088360048110610708577f4e487b7100000000000000000000000000000000000000000000000000000000600052603260045260246000fd5b600402018260048110610744577f4e487b7100000000000000000000000000000000000000000000000000000000600052603260045260246000fd5b015490506000610754858361019d565b90508060008054906101000a900473ffffffffffffffffffffffffffffffffffffffff1673ffffffffffffffffffffffffffffffffffffffff166370a08231336040518263ffffffff1660e01b81526004016107b09190610d56565b60206040518083038186803b1580156107c857600080fd5b505afa1580156107dc573d6000803e3d6000fd5b505050506040513d601f19601f820116820180604052508101906108009190610bb9565b1015610841576040517f08c379a000000000000000000000000000000000000000000000000000000000815260040161083890610e54565b60405180910390fd5b6000600160009054906101000a900473ffffffffffffffffffffffffffffffffffffffff1673ffffffffffffffffffffffffffffffffffffffff16636a627842886040518263ffffffff1660e01b815260040161089e9190610d56565b602060405180830381600087803b1580156108b857600080fd5b505af11580156108cc573d6000803e3d6000fd5b505050506040513d601f19601f820116820180604052508101906108f09190610bb9565b905060008054906101000a900473ffffffffffffffffffffffffffffffffffffffff1673ffffffffffffffffffffffffffffffffffffffff166323b872dd3330856040518463ffffffff1660e01b815260040161094f93929190610d71565b602060405180830381600087803b15801561096957600080fd5b505af115801561097d573d6000803e3d6000fd5b505050506040513d601f19601f820116820180604052508101906109a19190610b67565b506040518060c001604052808873ffffffffffffffffffffffffffffffffffffffff1681526020018281526020018381526020018481526020018781526020016000151581525060026000600354815260200190815260200160002060008201518160000160006101000a81548173ffffffffffffffffffffffffffffffffffffffff021916908373ffffffffffffffffffffffffffffffffffffffff1602179055506020820151816001015560408201518160020155606082015181600301556080820151816004015560a08201518160050160006101000a81548160ff02191690831515021790555090505060036000815480929190610aa290611052565b919050555050505050505050565b600081359050610abf8161124c565b92915050565b600081519050610ad481611263565b92915050565b600081359050610ae98161127a565b92915050565b600081519050610afe8161127a565b92915050565b60008060008060808587031215610b1a57600080fd5b6000610b2887828801610ab0565b9450506020610b3987828801610ada565b9350506040610b4a87828801610ada565b9250506060610b5b87828801610ada565b91505092959194509250565b600060208284031215610b7957600080fd5b6000610b8784828501610ac5565b91505092915050565b600060208284031215610ba257600080fd5b6000610bb084828501610ada565b91505092915050565b600060208284031215610bcb57600080fd5b6000610bd984828501610aef565b91505092915050565b60008060408385031215610bf557600080fd5b6000610c0385828601610ada565b9250506020610c1485828601610ada565b9150509250929050565b610c2781610fa5565b82525050565b610c3681610fb7565b82525050565b6000610c4782610f2f565b610c518185610f3a565b9350610c61818560208601610fed565b610c6a816110f9565b840191505092915050565b6000610c82601983610f3a565b9150610c8d8261110a565b602082019050919050565b6000610ca5602a83610f3a565b9150610cb082611133565b604082019050919050565b6000610cc8600d83610f3a565b9150610cd382611182565b602082019050919050565b6000610ceb601783610f3a565b9150610cf6826111ab565b602082019050919050565b6000610d0e601a83610f3a565b9150610d19826111d4565b602082019050919050565b6000610d31602483610f3a565b9150610d3c826111fd565b604082019050919050565b610d5081610fe3565b82525050565b6000602082019050610d6b6000830184610c1e565b92915050565b6000606082019050610d866000830186610c1e565b610d936020830185610c1e565b610da06040830184610d47565b949350505050565b6000604082019050610dbd6000830185610c1e565b610dca6020830184610d47565b9392505050565b600060c082019050610de66000830189610c1e565b610df36020830188610d47565b610e006040830187610d47565b610e0d6060830186610d47565b610e1a6080830185610d47565b610e2760a0830184610c2d565b979650505050505050565b60006020820190508181036000830152610e4c8184610c3c565b905092915050565b60006020820190508181036000830152610e6d81610c75565b9050919050565b60006020820190508181036000830152610e8d81610c98565b9050919050565b60006020820190508181036000830152610ead81610cbb565b9050919050565b60006020820190508181036000830152610ecd81610cde565b9050919050565b60006020820190508181036000830152610eed81610d01565b9050919050565b60006020820190508181036000830152610f0d81610d24565b9050919050565b6000602082019050610f296000830184610d47565b92915050565b600081519050919050565b600082825260208201905092915050565b6000610f5682610fe3565b9150610f6183610fe3565b9250817fffffffffffffffffffffffffffffffffffffffffffffffffffffffffffffffff0483118215151615610f9a57610f9961109b565b5b828202905092915050565b6000610fb082610fc3565b9050919050565b60008115159050919050565b600073ffffffffffffffffffffffffffffffffffffffff82169050919050565b6000819050919050565b60005b8381101561100b578082015181840152602081019050610ff0565b8381111561101a576000848401525b50505050565b6000600282049050600182168061103857607f821691505b6020821081141561104c5761104b6110ca565b5b50919050565b600061105d82610fe3565b91507fffffffffffffffffffffffffffffffffffffffffffffffffffffffffffffffff8214156110905761108f61109b565b5b600182019050919050565b7f4e487b7100000000000000000000000000000000000000000000000000000000600052601160045260246000fd5b7f4e487b7100000000000000000000000000000000000000000000000000000000600052602260045260246000fd5b6000601f19601f8301169050919050565b7f496e73756666696369656e74204352474f2062616c616e636500000000000000600082015250565b7f4f6e6c792074686520636f75726965722063616e20636f6d706c65746520746860008201527f652064656c697665727900000000000000000000000000000000000000000000602082015250565b7f496e76616c696420706f72747300000000000000000000000000000000000000600082015250565b7f496e76616c696420636f75726965722061646472657373000000000000000000600082015250565b7f44656c697665727920616c726561647920636f6d706c65746564000000000000600082015250565b7f46726f6d20616e6420546f20706f7274732063616e6e6f74206265207468652060008201527f73616d6500000000000000000000000000000000000000000000000000000000602082015250565b61125581610fa5565b811461126057600080fd5b50565b61126c81610fb7565b811461127757600080fd5b50565b61128381610fe3565b811461128e57600080fd5b5056fea26469706673582212202c989f6b0722d903ef4eaf557c9b5ca6f33731221aceecb78399ec16bcb9325164736f6c63430008040033",
  "linkReferences": {},
  "deployedLinkReferences": {}
}