{
  "_format": "hh-sol-artifact-1",
  "contractName": "CargoNFT",
  "sourceName": "contracts/CargoNFT.sol",
  "abi": [
    {
      "inputs": [],
      "stateMutability": "nonpayable",
      "type": "constructor"
    },
    {
      "anonymous": false,
      "inputs": [
        {
          "indexed": true,
          "internalType": "address",
          "name": "owner",
          "type": "address"
        },
        {
          "indexed": true,
          "internalType": "address",
          "name": "approved",
          "type": "address"
        },
        {
          "indexed": true,
          "internalType": "uint256",
          "name": "tokenId",
          "type": "uint256"
        }
      ],
      "name": "Approval",
      "type": "event"
    },
    {
      "anonymous": false,
      "inputs": [
        {
          "indexed": true,
          "internalType": "address",
          "name": "owner",
          "type": "address"
        },
        {
          "indexed": true,
          "internalType": "address",
          "name": "operator",
          "type": "address"
        },
        {
          "indexed": false,
          "internalType": "bool",
          "name": "approved",
          "type": "bool"
        }
      ],
      "name": "ApprovalForAll",
      "type": "event"
    },
    {
      "anonymous": false,
      "inputs": [
        {
          "indexed": true,
          "internalType": "address",
          "name": "from",
          "type": "address"
        },
        {
          "indexed": true,
          "internalType": "address",
          "name": "to",
          "type": "address"
        },
        {
          "indexed": true,
          "internalType": "uint256",
          "name": "tokenId",
          "type": "uint256"
        }
      ],
      "name": "Transfer",
      "type": "event"
    },
    {
      "inputs": [
        {
          "internalType": "address",
          "name": "to",
          "type": "address"
        },
        {
          "internalType": "uint256",
          "name": "tokenId",
          "type": "uint256"
        }
      ],
      "name": "approve",
      "outputs": [],
      "stateMutability": "nonpayable",
      "type": "function"
    },
    {
      "inputs": [
        {
          "internalType": "address",
          "name": "owner",
          "type": "address"
        }
      ],
      "name": "balanceOf",
      "outputs": [
        {
          "internalType": "uint256",
          "name": "",
          "type": "uint256"
        }
      ],
      "stateMutability": "view",
      "type": "function"
    },
    {
      "inputs": [
        {
          "internalType": "uint256",
          "name": "tokenId",
          "type": "uint256"
        }
      ],
      "name": "burn",
      "outputs": [],
      "stateMutability": "nonpayable",
      "type": "function"
    },
    {
      "inputs": [
        {
          "internalType": "uint256",
          "name": "tokenId",
          "type": "uint256"
        }
      ],
      "name": "getApproved",
      "outputs": [
        {
          "internalType": "address",
          "name": "",
          "type": "address"
        }
      ],
      "stateMutability": "view",
      "type": "function"
    },
    {
      "inputs": [
        {
          "internalType": "address",
          "name": "owner",
          "type": "address"
        },
        {
          "internalType": "address",
          "name": "operator",
          "type": "address"
        }
      ],
      "name": "isApprovedForAll",
      "outputs": [
        {
          "internalType": "bool",
          "name": "",
          "type": "bool"
        }
      ],
      "stateMutability": "view",
      "type": "function"
    },
    {
      "inputs": [
        {
          "internalType": "address",
          "name": "_to",
          "type": "address"
        }
      ],
      "name": "mint",
      "outputs": [
        {
          "internalType": "uint256",
          "name": "",
          "type": "uint256"
        }
      ],
      "stateMutability": "nonpayable",
      "type": "function"
    },
    {
      "inputs": [],
      "name": "name",
      "outputs": [
        {
          "internalType": "string",
          "name": "",
          "type": "string"
        }
      ],
      "stateMutability": "view",
      "type": "function"
    },
    {
      "inputs": [
        {
          "internalType": "uint256",
          "name": "tokenId",
          "type": "uint256"
        }
      ],
      "name": "ownerOf",
      "outputs": [
        {
          "internalType": "address",
          "name": "",
          "type": "address"
        }
      ],
      "stateMutability": "view",
      "type": "function"
    },
    {
      "inputs": [
        {
          "internalType": "address",
          "name": "from",
          "type": "address"
        },
        {
          "internalType": "address",
          "name": "to",
          "type": "address"
        },
        {
          "internalType": "uint256",
          "name": "tokenId",
          "type": "uint256"
        }
      ],
      "name": "safeTransferFrom",
      "outputs": [],
      "stateMutability": "nonpayable",
      "type": "function"
    },
    {
      "inputs": [
        {
          "internalType": "address",
          "name": "from",
          "type": "address"
        },
        {
          "internalType": "address",
          "name": "to",
          "type": "address"
        },
        {
          "internalType": "uint256",
          "name": "tokenId",
          "type": "uint256"
        },
        {
          "internalType": "bytes",
          "name": "data",
          "type": "bytes"
        }
      ],
      "name": "safeTransferFrom",
      "outputs": [],
      "stateMutability": "nonpayable",
      "type": "function"
    },
    {
      "inputs": [
        {
          "internalType": "address",
          "name": "operator",
          "type": "address"
        },
        {
          "internalType": "bool",
          "name": "approved",
          "type": "bool"
        }
      ],
      "name": "setApprovalForAll",
      "outputs": [],
      "stateMutability": "nonpayable",
      "type": "function"
    },
    {
      "inputs": [
        {
          "internalType": "bytes4",
          "name": "interfaceId",
          "type": "bytes4"
        }
      ],
      "name": "supportsInterface",
      "outputs": [
        {
          "internalType": "bool",
          "name": "",
          "type": "bool"
        }
      ],
      "stateMutability": "view",
      "type": "function"
    },
    {
      "inputs": [],
      "name": "symbol",
      "outputs": [
        {
          "internalType": "string",
          "name": "",
          "type": "string"
        }
      ],
      "stateMutability": "view",
      "type": "function"
    },
    {
      "inputs": [
        {
          "internalType": "uint256",
          "name": "tokenId",
          "type": "uint256"
        }
      ],
      "name": "tokenURI",
      "outputs": [
        {
          "internalType": "string",
          "name": "",
          "type": "string"
        }
      ],
      "stateMutability": "view",
      "type": "function"
    },
    {
      "inputs": [
        {
          "internalType": "address",
          "name": "from",
          "type": "address"
        },
        {
          "internalType": "address",
          "name": "to",
          "type": "address"
        },
        {
          "internalType": "uint256",
          "name": "tokenId",
          "type": "uint256"
        }
      ],
      "name": "transferFrom",
      "outputs": [],
      "stateMutability": "nonpayable",
      "type": "function"
    }
  ],
  "bytecode": "0x60806040523480156200001157600080fd5b506040518060400160405280600981526020017f436172676f204e465400000000000000000000000000000000000000000000008152506040518060400160405280600681526020017f4352474e46540000000000000000000000000000000000000000000000000000815250816000908051906020019062000096929190620000b8565b508060019080519060200190620000af929190620000b8565b505050620001cd565b828054620000c69062000168565b90600052602060002090601f016020900481019282620000ea576000855562000136565b82601f106200010557805160ff191683800117855562000136565b8280016001018555821562000136579182015b828111156200013557825182559160200191906001019062000118565b5b50905062000145919062000149565b5090565b5b80821115620001645760008160009055506001016200014a565b5090565b600060028204905060018216806200018157607f821691505b602082108114156200019857620001976200019e565b5b50919050565b7f4e487b7100000000000000000000000000000000000000000000000000000000600052602260045260246000fd5b6127d580620001dd6000396000f3fe608060405234801561001057600080fd5b50600436106100f55760003560e01c80636352211e11610097578063a22cb46511610066578063a22cb46514610296578063b88d4fde146102b2578063c87b56dd146102ce578063e985e9c5146102fe576100f5565b80636352211e146101e85780636a6278421461021857806370a082311461024857806395d89b4114610278576100f5565b8063095ea7b3116100d3578063095ea7b31461017857806323b872dd1461019457806342842e0e146101b057806342966c68146101cc576100f5565b806301ffc9a7146100fa57806306fdde031461012a578063081812fc14610148575b600080fd5b610114600480360381019061010f9190611cda565b61032e565b6040516101219190612054565b60405180910390f35b610132610410565b60405161013f919061206f565b60405180910390f35b610162600480360381019061015d9190611d2c565b6104a2565b60405161016f9190611fed565b60405180910390f35b610192600480360381019061018d9190611c9e565b6104e8565b005b6101ae60048036038101906101a99190611b98565b610600565b005b6101ca60048036038101906101c59190611b98565b610660565b005b6101e660048036038101906101e19190611d2c565b610680565b005b61020260048036038101906101fd9190611d2c565b6106dc565b60405161020f9190611fed565b60405180910390f35b610232600480360381019061022d9190611b33565b610763565b60405161023f9190612211565b60405180910390f35b610262600480360381019061025d9190611b33565b610790565b60405161026f9190612211565b60405180910390f35b610280610848565b60405161028d919061206f565b60405180910390f35b6102b060048036038101906102ab9190611c62565b6108da565b005b6102cc60048036038101906102c79190611be7565b6108f0565b005b6102e860048036038101906102e39190611d2c565b610952565b6040516102f5919061206f565b60405180910390f35b61031860048036038101906103139190611b5c565b6109ba565b6040516103259190612054565b60405180910390f35b60007f80ac58cd000000000000000000000000000000000000000000000000000000007bffffffffffffffffffffffffffffffffffffffffffffffffffffffff1916827bffffffffffffffffffffffffffffffffffffffffffffffffffffffff191614806103f957507f5b5e139f000000000000000000000000000000000000000000000000000000007bffffffffffffffffffffffffffffffffffffffffffffffffffffffff1916827bffffffffffffffffffffffffffffffffffffffffffffffffffffffff1916145b80610409575061040882610a4e565b5b9050919050565b60606000805461041f9061237b565b80601f016020809104026020016040519081016040528092919081815260200182805461044b9061237b565b80156104985780601f1061046d57610100808354040283529160200191610498565b820191906000526020600020905b81548152906001019060200180831161047b57829003601f168201915b5050505050905090565b60006104ad82610ab8565b6004600083815260200190815260200160002060009054906101000a900473ffffffffffffffffffffffffffffffffffffffff169050919050565b60006104f3826106dc565b90508073ffffffffffffffffffffffffffffffffffffffff168373ffffffffffffffffffffffffffffffffffffffff161415610564576040517f08c379a000000000000000000000000000000000000000000000000000000000815260040161055b906121b1565b60405180910390fd5b8073ffffffffffffffffffffffffffffffffffffffff16610583610b03565b73ffffffffffffffffffffffffffffffffffffffff1614806105b257506105b1816105ac610b03565b6109ba565b5b6105f1576040517f08c379a00000000000000000000000000000000000000000000000000000000081526004016105e8906121f1565b60405180910390fd5b6105fb8383610b0b565b505050565b61061161060b610b03565b82610bc4565b610650576040517f08c379a000000000000000000000000000000000000000000000000000000000815260040161064790612091565b60405180910390fd5b61065b838383610c59565b505050565b61067b838383604051806020016040528060008152506108f0565b505050565b61069161068b610b03565b82610bc4565b6106d0576040517f08c379a00000000000000000000000000000000000000000000000000000000081526004016106c7906121d1565b60405180910390fd5b6106d981610f53565b50565b6000806106e8836110a1565b9050600073ffffffffffffffffffffffffffffffffffffffff168173ffffffffffffffffffffffffffffffffffffffff16141561075a576040517f08c379a000000000000000000000000000000000000000000000000000000000815260040161075190612191565b60405180910390fd5b80915050919050565b600061076f60066110de565b600061077b60066110f4565b90506107878382611102565b80915050919050565b60008073ffffffffffffffffffffffffffffffffffffffff168273ffffffffffffffffffffffffffffffffffffffff161415610801576040517f08c379a00000000000000000000000000000000000000000000000000000000081526004016107f890612151565b60405180910390fd5b600360008373ffffffffffffffffffffffffffffffffffffffff1673ffffffffffffffffffffffffffffffffffffffff168152602001908152602001600020549050919050565b6060600180546108579061237b565b80601f01602080910402602001604051908101604052809291908181526020018280546108839061237b565b80156108d05780601f106108a5576101008083540402835291602001916108d0565b820191906000526020600020905b8154815290600101906020018083116108b357829003601f168201915b5050505050905090565b6108ec6108e5610b03565b8383611320565b5050565b6109016108fb610b03565b83610bc4565b610940576040517f08c379a000000000000000000000000000000000000000000000000000000000815260040161093790612091565b60405180910390fd5b61094c8484848461148d565b50505050565b606061095d82610ab8565b60006109676114e9565b9050600081511161098757604051806020016040528060008152506109b2565b8061099184611500565b6040516020016109a2929190611fc9565b6040516020818303038152906040525b915050919050565b6000600560008473ffffffffffffffffffffffffffffffffffffffff1673ffffffffffffffffffffffffffffffffffffffff16815260200190815260200160002060008373ffffffffffffffffffffffffffffffffffffffff1673ffffffffffffffffffffffffffffffffffffffff16815260200190815260200160002060009054906101000a900460ff16905092915050565b60007f01ffc9a7000000000000000000000000000000000000000000000000000000007bffffffffffffffffffffffffffffffffffffffffffffffffffffffff1916827bffffffffffffffffffffffffffffffffffffffffffffffffffffffff1916149050919050565b610ac181611624565b610b00576040517f08c379a0000000000000000000000000000000000000000000000000000000008152600401610af790612191565b60405180910390fd5b50565b600033905090565b816004600083815260200190815260200160002060006101000a81548173ffffffffffffffffffffffffffffffffffffffff021916908373ffffffffffffffffffffffffffffffffffffffff160217905550808273ffffffffffffffffffffffffffffffffffffffff16610b7e836106dc565b73ffffffffffffffffffffffffffffffffffffffff167f8c5be1e5ebec7d5bd14f71427d1e84f3dd0314c0f7b2291e5b200ac8c7c3b92560405160405180910390a45050565b600080610bd0836106dc565b90508073ffffffffffffffffffffffffffffffffffffffff168473ffffffffffffffffffffffffffffffffffffffff161480610c125750610c1181856109ba565b5b80610c5057508373ffffffffffffffffffffffffffffffffffffffff16610c38846104a2565b73ffffffffffffffffffffffffffffffffffffffff16145b91505092915050565b8273ffffffffffffffffffffffffffffffffffffffff16610c79826106dc565b73ffffffffffffffffffffffffffffffffffffffff1614610ccf576040517f08c379a0000000000000000000000000000000000000000000000000000000008152600401610cc6906120d1565b60405180910390fd5b600073ffffffffffffffffffffffffffffffffffffffff168273ffffffffffffffffffffffffffffffffffffffff161415610d3f576040517f08c379a0000000000000000000000000000000000000000000000000000000008152600401610d3690612111565b60405180910390fd5b610d4c8383836001611665565b8273ffffffffffffffffffffffffffffffffffffffff16610d6c826106dc565b73ffffffffffffffffffffffffffffffffffffffff1614610dc2576040517f08c379a0000000000000000000000000000000000000000000000000000000008152600401610db9906120d1565b60405180910390fd5b6004600082815260200190815260200160002060006101000a81549073ffffffffffffffffffffffffffffffffffffffff02191690556001600360008573ffffffffffffffffffffffffffffffffffffffff1673ffffffffffffffffffffffffffffffffffffffff168152602001908152602001600020600082825403925050819055506001600360008473ffffffffffffffffffffffffffffffffffffffff1673ffffffffffffffffffffffffffffffffffffffff16815260200190815260200160002060008282540192505081905550816002600083815260200190815260200160002060006101000a81548173ffffffffffffffffffffffffffffffffffffffff021916908373ffffffffffffffffffffffffffffffffffffffff160217905550808273ffffffffffffffffffffffffffffffffffffffff168473ffffffffffffffffffffffffffffffffffffffff167fddf252ad1be2c89b69c2b068fc378daa952ba7f163c4a11628f55a4df523b3ef60405160405180910390a4610f4e838383600161166b565b505050565b6000610f5e826106dc565b9050610f6e816000846001611665565b610f77826106dc565b90506004600083815260200190815260200160002060006101000a81549073ffffffffffffffffffffffffffffffffffffffff02191690556001600360008373ffffffffffffffffffffffffffffffffffffffff1673ffffffffffffffffffffffffffffffffffffffff168152602001908152602001600020600082825403925050819055506002600083815260200190815260200160002060006101000a81549073ffffffffffffffffffffffffffffffffffffffff021916905581600073ffffffffffffffffffffffffffffffffffffffff168273ffffffffffffffffffffffffffffffffffffffff167fddf252ad1be2c89b69c2b068fc378daa952ba7f163c4a11628f55a4df523b3ef60405160405180910390a461109d81600084600161166b565b5050565b60006002600083815260200190815260200160002060009054906101000a900473ffffffffffffffffffffffffffffffffffffffff169050919050565b6001816000016000828254019250508190555050565b600081600001549050919050565b600073ffffffffffffffffffffffffffffffffffffffff168273ffffffffffffffffffffffffffffffffffffffff161415611172576040517f08c379a000000000000000000000000000000000000000000000000000000000815260040161116990612171565b60405180910390fd5b61117b81611624565b156111bb576040517f08c379a00000000000000000000000000000000000000000000000000000000081526004016111b2906120f1565b60405180910390fd5b6111c9600083836001611665565b6111d281611624565b15611212576040517f08c379a0000000000000000000000000000000000000000000000000000000008152600401611209906120f1565b60405180910390fd5b6001600360008473ffffffffffffffffffffffffffffffffffffffff1673ffffffffffffffffffffffffffffffffffffffff16815260200190815260200160002060008282540192505081905550816002600083815260200190815260200160002060006101000a81548173ffffffffffffffffffffffffffffffffffffffff021916908373ffffffffffffffffffffffffffffffffffffffff160217905550808273ffffffffffffffffffffffffffffffffffffffff16600073ffffffffffffffffffffffffffffffffffffffff167fddf252ad1be2c89b69c2b068fc378daa952ba7f163c4a11628f55a4df523b3ef60405160405180910390a461131c60008383600161166b565b5050565b8173ffffffffffffffffffffffffffffffffffffffff168373ffffffffffffffffffffffffffffffffffffffff16141561138f576040517f08c379a000000000000000000000000000000000000000000000000000000000815260040161138690612131565b60405180910390fd5b80600560008573ffffffffffffffffffffffffffffffffffffffff1673ffffffffffffffffffffffffffffffffffffffff16815260200190815260200160002060008473ffffffffffffffffffffffffffffffffffffffff1673ffffffffffffffffffffffffffffffffffffffff16815260200190815260200160002060006101000a81548160ff0219169083151502179055508173ffffffffffffffffffffffffffffffffffffffff168373ffffffffffffffffffffffffffffffffffffffff167f17307eab39ab6107e8899845ad3d59bd9653f200f220920489ca2b5937696c31836040516114809190612054565b60405180910390a3505050565b611498848484610c59565b6114a484848484611671565b6114e3576040517f08c379a00000000000000000000000000000000000000000000000000000000081526004016114da906120b1565b60405180910390fd5b50505050565b606060405180602001604052806000815250905090565b60606000600161150f84611808565b01905060008167ffffffffffffffff811115611554577f4e487b7100000000000000000000000000000000000000000000000000000000600052604160045260246000fd5b6040519080825280601f01601f1916602001820160405280156115865781602001600182028036833780820191505090505b509050600082602001820190505b600115611619578080600190039150507f3031323334353637383961626364656600000000000000000000000000000000600a86061a8153600a8581611603577f4e487b7100000000000000000000000000000000000000000000000000000000600052601260045260246000fd5b049450600085141561161457611619565b611594565b819350505050919050565b60008073ffffffffffffffffffffffffffffffffffffffff16611646836110a1565b73ffffffffffffffffffffffffffffffffffffffff1614159050919050565b50505050565b50505050565b60006116928473ffffffffffffffffffffffffffffffffffffffff16611a3f565b156117fb578373ffffffffffffffffffffffffffffffffffffffff1663150b7a026116bb610b03565b8786866040518563ffffffff1660e01b81526004016116dd9493929190612008565b602060405180830381600087803b1580156116f757600080fd5b505af192505050801561172857506040513d601f19601f820116820180604052508101906117259190611d03565b60015b6117ab573d8060008114611758576040519150601f19603f3d011682016040523d82523d6000602084013e61175d565b606091505b506000815114156117a3576040517f08c379a000000000000000000000000000000000000000000000000000000000815260040161179a906120b1565b60405180910390fd5b805181602001fd5b63150b7a0260e01b7bffffffffffffffffffffffffffffffffffffffffffffffffffffffff1916817bffffffffffffffffffffffffffffffffffffffffffffffffffffffff191614915050611800565b600190505b949350505050565b600080600090507a184f03e93ff9f4daa797ed6e38ed64bf6a1f010000000000000000831061188c577a184f03e93ff9f4daa797ed6e38ed64bf6a1f0100000000000000008381611882577f4e487b7100000000000000000000000000000000000000000000000000000000600052601260045260246000fd5b0492506040810190505b6d04ee2d6d415b85acef810000000083106118ef576d04ee2d6d415b85acef810000000083816118e5577f4e487b7100000000000000000000000000000000000000000000000000000000600052601260045260246000fd5b0492506020810190505b662386f26fc10000831061194457662386f26fc10000838161193a577f4e487b7100000000000000000000000000000000000000000000000000000000600052601260045260246000fd5b0492506010810190505b6305f5e1008310611993576305f5e1008381611989577f4e487b7100000000000000000000000000000000000000000000000000000000600052601260045260246000fd5b0492506008810190505b61271083106119de5761271083816119d4577f4e487b7100000000000000000000000000000000000000000000000000000000600052601260045260246000fd5b0492506004810190505b60648310611a275760648381611a1d577f4e487b7100000000000000000000000000000000000000000000000000000000600052601260045260246000fd5b0492506002810190505b600a8310611a36576001810190505b80915050919050565b6000808273ffffffffffffffffffffffffffffffffffffffff163b119050919050565b6000611a75611a7084612251565b61222c565b905082815260208101848484011115611a8d57600080fd5b611a98848285612339565b509392505050565b600081359050611aaf81612743565b92915050565b600081359050611ac48161275a565b92915050565b600081359050611ad981612771565b92915050565b600081519050611aee81612771565b92915050565b600082601f830112611b0557600080fd5b8135611b15848260208601611a62565b91505092915050565b600081359050611b2d81612788565b92915050565b600060208284031215611b4557600080fd5b6000611b5384828501611aa0565b91505092915050565b60008060408385031215611b6f57600080fd5b6000611b7d85828601611aa0565b9250506020611b8e85828601611aa0565b9150509250929050565b600080600060608486031215611bad57600080fd5b6000611bbb86828701611aa0565b9350506020611bcc86828701611aa0565b9250506040611bdd86828701611b1e565b9150509250925092565b60008060008060808587031215611bfd57600080fd5b6000611c0b87828801611aa0565b9450506020611c1c87828801611aa0565b9350506040611c2d87828801611b1e565b925050606085013567ffffffffffffffff811115611c4a57600080fd5b611c5687828801611af4565b91505092959194509250565b60008060408385031215611c7557600080fd5b6000611c8385828601611aa0565b9250506020611c9485828601611ab5565b9150509250929050565b60008060408385031215611cb157600080fd5b6000611cbf85828601611aa0565b9250506020611cd085828601611b1e565b9150509250929050565b600060208284031215611cec57600080fd5b6000611cfa84828501611aca565b91505092915050565b600060208284031215611d1557600080fd5b6000611d2384828501611adf565b91505092915050565b600060208284031215611d3e57600080fd5b6000611d4c84828501611b1e565b91505092915050565b611d5e816122c5565b82525050565b611d6d816122d7565b82525050565b6000611d7e82612282565b611d888185612298565b9350611d98818560208601612348565b611da18161243c565b840191505092915050565b6000611db78261228d565b611dc181856122a9565b9350611dd1818560208601612348565b611dda8161243c565b840191505092915050565b6000611df08261228d565b611dfa81856122ba565b9350611e0a818560208601612348565b80840191505092915050565b6000611e23602d836122a9565b9150611e2e8261244d565b604082019050919050565b6000611e466032836122a9565b9150611e518261249c565b604082019050919050565b6000611e696025836122a9565b9150611e74826124eb565b604082019050919050565b6000611e8c601c836122a9565b9150611e978261253a565b602082019050919050565b6000611eaf6024836122a9565b9150611eba82612563565b604082019050919050565b6000611ed26019836122a9565b9150611edd826125b2565b602082019050919050565b6000611ef56029836122a9565b9150611f00826125db565b604082019050919050565b6000611f186020836122a9565b9150611f238261262a565b602082019050919050565b6000611f3b6018836122a9565b9150611f4682612653565b602082019050919050565b6000611f5e6021836122a9565b9150611f698261267c565b604082019050919050565b6000611f816020836122a9565b9150611f8c826126cb565b602082019050919050565b6000611fa4603d836122a9565b9150611faf826126f4565b604082019050919050565b611fc38161232f565b82525050565b6000611fd58285611de5565b9150611fe18284611de5565b91508190509392505050565b60006020820190506120026000830184611d55565b92915050565b600060808201905061201d6000830187611d55565b61202a6020830186611d55565b6120376040830185611fba565b81810360608301526120498184611d73565b905095945050505050565b60006020820190506120696000830184611d64565b92915050565b600060208201905081810360008301526120898184611dac565b905092915050565b600060208201905081810360008301526120aa81611e16565b9050919050565b600060208201905081810360008301526120ca81611e39565b9050919050565b600060208201905081810360008301526120ea81611e5c565b9050919050565b6000602082019050818103600083015261210a81611e7f565b9050919050565b6000602082019050818103600083015261212a81611ea2565b9050919050565b6000602082019050818103600083015261214a81611ec5565b9050919050565b6000602082019050818103600083015261216a81611ee8565b9050919050565b6000602082019050818103600083015261218a81611f0b565b9050919050565b600060208201905081810360008301526121aa81611f2e565b9050919050565b600060208201905081810360008301526121ca81611f51565b9050919050565b600060208201905081810360008301526121ea81611f74565b9050919050565b6000602082019050818103600083015261220a81611f97565b9050919050565b60006020820190506122266000830184611fba565b92915050565b6000612236612247565b905061224282826123ad565b919050565b6000604051905090565b600067ffffffffffffffff82111561226c5761226b61240d565b5b6122758261243c565b9050602081019050919050565b600081519050919050565b600081519050919050565b600082825260208201905092915050565b600082825260208201905092915050565b600081905092915050565b60006122d08261230f565b9050919050565b60008115159050919050565b60007fffffffff0000000000000000000000000000000000000000000000000000000082169050919050565b600073ffffffffffffffffffffffffffffffffffffffff82169050919050565b6000819050919050565b82818337600083830152505050565b60005b8381101561236657808201518184015260208101905061234b565b83811115612375576000848401525b50505050565b6000600282049050600182168061239357607f821691505b602082108114156123a7576123a66123de565b5b50919050565b6123b68261243c565b810181811067ffffffffffffffff821117156123d5576123d461240d565b5b80604052505050565b7f4e487b7100000000000000000000000000000000000000000000000000000000600052602260045260246000fd5b7f4e487b7100000000000000000000000000000000000000000000000000000000600052604160045260246000fd5b6000601f19601f8301169050919050565b7f4552433732313a2063616c6c6572206973206e6f7420746f6b656e206f776e6560008201527f72206f7220617070726f76656400000000000000000000000000000000000000602082015250565b7f4552433732313a207472616e7366657220746f206e6f6e20455243373231526560008201527f63656976657220696d706c656d656e7465720000000000000000000000000000602082015250565b7f4552433732313a207472616e736665722066726f6d20696e636f72726563742060008201527f6f776e6572000000000000000000000000000000000000000000000000000000602082015250565b7f4552433732313a20746f6b656e20616c7265616479206d696e74656400000000600082015250565b7f4552433732313a207472616e7366657220746f20746865207a65726f2061646460008201527f7265737300000000000000000000000000000000000000000000000000000000602082015250565b7f4552433732313a20617070726f766520746f2063616c6c657200000000000000600082015250565b7f4552433732313a2061646472657373207a65726f206973206e6f74206120766160008201527f6c6964206f776e65720000000000000000000000000000000000000000000000602082015250565b7f4552433732313a206d696e7420746f20746865207a65726f2061646472657373600082015250565b7f4552433732313a20696e76616c696420746f6b656e2049440000000000000000600082015250565b7f4552433732313a20617070726f76616c20746f2063757272656e74206f776e6560008201527f7200000000000000000000000000000000000000000000000000000000000000602082015250565b7f43616c6c6572206973206e6f74206f776e6572206e6f7220617070726f766564600082015250565b7f4552433732313a20617070726f76652063616c6c6572206973206e6f7420746f60008201527f6b656e206f776e6572206f7220617070726f76656420666f7220616c6c000000602082015250565b61274c816122c5565b811461275757600080fd5b50565b612763816122d7565b811461276e57600080fd5b50565b61277a816122e3565b811461278557600080fd5b50565b6127918161232f565b811461279c57600080fd5b5056fea2646970667358221220866022a4c518798a630078621af43ea519e88d2378f7dbf57d31c0822a4eb67864736f6c63430008040033",
  "linkReferences": {},
  "deployedLinkReferences": {}
}